:100000000C94D6000C94FE000C94FE000C94FE00A0
:100010000C94FE000C94FE000C94FE000C94FE0068
:100020000C94FE000C94FE000C940D090C947C09B9
:100030000C94FE000C94FE000C94FE000C94FE0048
:100040000C94FE000C94FE000C94FE000C94FE0038
:100050000C94FE000C94FE000C94FE000C94C3085B
:100060000C94FE000C94FE000C94FE000C94FE0018
:100070000C94FE000C94FE000C94FE000C94FE0008
:100080000C94FE000C94FE000C94FE000C94FE00F8
:100090000C94FE000C94FE000C94FE000C94FE00E8
:1000A0000C94FE000C94FE000C94FE00080B000261
:1000B0000202000009040000010202000005240001
:1000C0001001052401010104240206052406000193
:1000D0000705810310004009040100020A00000026
:1000E00007050202400000070583024000000403E8
:1000F000090412010002EF02014041233680000191
:100100000102030141726475696E6F204C4C43001B
:100110004C6F616463656C6C2048616E64627261EF
:100120006B650000000000240027002A002D00302D
:100130000000000000250028002B002E00310000E8
:100140000000002300260029002C002F00040404D6
:10015000040403040502020202040302020202066E
:10016000060606060604040202020404040802014C
:1001700010408040102040804080080204018040F0
:1001800020100201108010204040200000000200DA
:10019000090F0000030401000C0000000000000033
:1001A00000000000000000000000E10B11241FBE51
:1001B000CFEFDAE0DEBFCDBF11E0A0E0B1E0ECE9C7
:1001C000F9E202C005900D92AA33B107D9F722E0F7
:1001D000AAE3B1E001C01D92A037B207E1F710E039
:1001E000C6EDD0E004C02197FE010E948413C53DF6
:1001F000D107C9F70E94AC0E0C94CC140C940000EB
:100200004F925F926F927F928F929F92AF92BF9226
:10021000CF92DF92EF92FF920F931F93CF93DF93D2
:10022000E5010C151D052E053F050CF051C02801F8
:10023000390146015701882309F44FC0CA01DB0187
:1002400084159505A605B70514F4D301C201B501BF
:10025000A40188159905AA05BB0514F4AC01BD01DC
:10026000C016D106E206F30664F4D501C401841B6E
:10027000950BA60BB70BAC01BD01440D551D661DBA
:10028000771D9A01AB012419350946095709AFEFCB
:10029000BFEF0E94FB10A5019401241935094609FE
:1002A00057090E94DC102883398382E090E0DF91B7
:1002B000CF911F910F91FF90EF90DF90CF90BF9063
:1002C000AF909F908F907F906F905F904F90089528
:1002D0002601370148015901AECF90E080E0E7CF19
:1002E0003F924F925F926F927F928F929F92AF92C6
:1002F000BF92CF92DF92EF92FF920F931F93CF9313
:10030000DF937C01062F6C0184E0C80ED11C11E044
:100310001017A0F5F60181909190A190B1906F0116
:10032000312EC32DD0E0C150D04CCC0FDD1FCC0FEF
:10033000DD1FF701EC0FFD1F40805180628073804C
:100340002496CE0DDF1DA3019201C501B4010E94C8
:10035000A41187FF07C0488259826A827B823A943F
:100360003110DFCF84E0389EF0011124EE0DFF1D27
:1003700080829182A282B3821F5FCACFDF91CF9128
:100380001F910F91FF90EF90DF90CF90BF90AF90B3
:100390009F908F907F906F905F904F903F900895C7
:1003A000FC0180917101882311F13FB7F89482E03C
:1003B0008093E9002091F200822F90E01816190630
:1003C00014F481E090E0882339F0289844E64093C3
:1003D00070014091F1004083222339F02091F20016
:1003E000211103C02BE62093E8003FBF08958FEF53
:1003F0009FEF089581508F3008F047C0E82FF0E05C
:10040000EC5FFD4F0C9484132102250213021902A4
:100410001D0245024502450228022E023202360222
:100420003C0245024002809180008F7780938000DB
:100430000895809180008F7DF9CF80918000877F23
:10044000F5CF84B58F7784BD089584B58F7DFBCFBC
:10045000809190008F778093900008958091900014
:100460008F7DF9CF80919000877FF5CF8091C0007C
:100470008F778093C00008958091C0008F7DF9CF61
:100480008091C200877F8093C2000895CF93DF934D
:10049000282F30E0F901E557FE4F8491F901E45926
:1004A000FE4FD491F901E35BFE4FC491CC23A1F040
:1004B00081110E94FA01EC2FF0E0EE0FFF1FE15CCA
:1004C000FE4FA591B491EC91ED2381E090E009F409
:1004D00080E0DF91CF91089580E090E0FACF1F9304
:1004E000CF93DF93282F30E0F901E557FE4F849139
:1004F000F901E459FE4FD491F901E35BFE4FC49139
:10050000CC23A9F0162F81110E94FA01EC2FF0E004
:10051000EE0FFF1FEF5CFE4FA591B4918FB7F894DB
:10052000EC91111108C0D095DE23DC938FBFDF91D1
:10053000CF911F910895DE2BF8CFCF93DF93C8E5BD
:10054000D2E061E089810E946F028BEF90E0019719
:10055000F1F760E089810E946F021B821C821D827C
:100560001E8280E090E0A0E8BFE38F839887A98790
:10057000BA8780E88A831B861C861D861E861B8A96
:10058000DF91CF9108953FB7F89480916C019091DD
:100590006D01A0916E01B0916F0126B5A89B05C0B9
:1005A0002F3F19F00196A11DB11D3FBFBA2FA92FF2
:1005B000982F8827BC01CD01620F711D811D911DEF
:1005C00042E0660F771F881F991F4A95D1F708955B
:1005D000CF92DF92EF92FF920E94C3026B017C01E7
:1005E0000E94C3026C197D098E099F09683E734001
:1005F00081059105A8F3FF90EF90DF90CF900895CB
:10060000409161015091620120915F013091600140
:1006100042175307B4F49091E8009570E1F390917C
:10062000E80092FD19C08093F100809161019091E2
:10063000620101968F739927892B19F48EEF8093AD
:10064000E8008091610190916201019690936201AE
:100650008093610181E0089580E00895DF92EF9238
:10066000FF920F931F93CF93DF93D82E8A01EB0154
:100670007B01E40EF51ECE15DF0559F0D7FE12C042
:10068000FE0184910E94000321968111F4CF0FEFA7
:100690001FEFC801DF91CF911F910F91FF90EF9055
:1006A000DF9008958881EECF2FB7F89487708093FC
:1006B000E9009091E800892F807295FF04C0909125
:1006C000F20080E4891B2FBF08957F928F929F9242
:1006D000AF92BF92CF92DF92EF92FF920F931F9350
:1006E000CF93DF93C82E8B017A0180917101811124
:1006F00010C08FEF9FEFDF91CF911F910F91FF906F
:10070000EF90DF90CF90BF90AF909F908F907F90B1
:1007100008958091650180FF05C08091E0008260AE
:100720008093E000CE2DDF2DD12C8AEFB82E8C2DBA
:100730008770982E8C2D8072882E8C2D8074782E48
:100740009AE3A92E209719F4DD2009F44EC08C2DD0
:100750000E945403811106C0BA94BB2051F20E943A
:10076000E802F0CF8C171D0611F00CF08C2F9FB70C
:10077000F8949092E9002091E80025FD02C09FBF07
:10078000E1CF282F30E0C21BD30B882029F0815005
:10079000A0F01092F100FBCFF801C7FC0AC0815015
:1007A00050F041914093F100FACF44914093F10011
:1007B00031968150D0F7020F131FDD2021F0A09257
:1007C000E800D12CDCCF8091E80085FD07C0A09225
:1007D000E800DD24D394209791F2F3CF209779F6A7
:1007E000772069F2A092E800CACF5D9884E68093F2
:1007F0006401C70180CF615030F02091F100FC010D
:1008000020830196F8CF289884E68093700108959C
:100810008091570181110DC082E08093530184E0E3
:1008200080935401109256011092550181E08093FB
:10083000570183E591E008950F931F93CF93DF93C2
:100840001F92CDB7DEB782E0898342E450E06CEAC4
:1008500070E080E80E942E030E940804DC011296DA
:100860000D911C910115110589F0D801ED91FC91B4
:100870000280F381E02DBE016F5F7F4FC8010995B3
:1008800097FD04C0F80100851185ECCF89810F9098
:10089000DF91CF911F910F910895CF93DF93EC01DA
:1008A00080911201882331F083E00E9465031816BD
:1008B000190634F081E090E09B838A8380E090E029
:1008C000DF91CF910895CF93DF931F92CDB7DEB71D
:1008D0006983DC01ED91FC910280F381E02D41E020
:1008E00050E0BE016F5F7F4F09950F90DF91CF9170
:1008F000089583E08093E9008091F200882319F045
:100900008AE38093E800089583E00E94540390E016
:100910000895CF93DF931F92CDB7DEB7FC01848596
:10092000958597FD08C02FEF3FEF358724870F90FF
:10093000DF91CF910895CE0101960E94D0010197D9
:1009400019F4898190E0F3CF8FEF9FEFF0CF0F93F1
:100950001F93CF93DF931F92CDB7DEB78C01FC01BD
:100960008485958597FF0BC0CE0101960E94D0012A
:10097000019771F4898190E0F80195878487F801E7
:10098000848595850F90DF91CF911F910F910895E8
:100990008FEF9FEFF1CFFC018485958597FD0BC00C
:1009A0009FB7F89482E08093E9008091F2009FBFA6
:1009B00090E0019608959FB7F89482E08093E90053
:1009C0008091F2009FBF90E00895DC01FB01129638
:1009D0002C911297848195812817190641F49181F1
:1009E0008081813A31F49D7F81E0913009F080E08F
:1009F00008958132E1F79B3029F482811F968C9310
:100A000081E008959A3099F7828150968C93F8CFBF
:100A1000DC01FB0188E4808389E4818384E48283B0
:100A20001D969C911D979F709F5B93831D968D9142
:100A30009C9124E0969587952A95E1F78F708F5BBE
:100A4000848385E00895EF92FF920F931F93CF93D5
:100A5000DF93FB012081213889F52381223271F552
:100A6000DC0112964C91248135814217130631F531
:100A70008C01FC01C385D485F12CE12C209791F0E9
:100A80004C815D816A817B818E81811180E80E9429
:100A90002E038F3F980759F0E80EF91E0990D88170
:100AA000C02DECCF81E0D8011F968C93C701DF9158
:100AB000CF911F910F91FF90EF90089590E080E00B
:100AC000F6CFCF93DF93CDB7DEB769970FB6F89423
:100AD000DEBF0FBECDBFFC01DB018C918F5F8C931D
:100AE0009E012D5F3F4F8DE0D9011D928A95E9F758
:100AF00029E0298384E08A8391E09D8383E08E83CB
:100B00002A8721E22B879C879D879F8722E2288B5B
:100B100027E02B8B25E02C8B8E8B20E430E0388F68
:100B20002F8B998F82818B8395858685998B8A8B74
:100B3000838180688D8B49E150E0BE016F5F7F4FFC
:100B400080E00E942E0369960FB6F894DEBF0FBEB8
:100B5000CDBFDF91CF910895CF93DF9380914B016B
:100B6000811167C081E080933E0180933F0124E4BE
:100B700031E03093410120934001109243011092E3
:100B800042012DE131E030933B0120933A01109274
:100B9000460110924501109248011092470180933E
:100BA000490180934A0181EC809344010E9408042A
:100BB000FC01818190913E01482F490F5527551F17
:100BC000483051059CF5A281B381109709F52AE3BD
:100BD00031E033832283208120933C0180933D01C7
:100BE00080913F01820F808320914001A22FB0911C
:100BF00041018A2F821B8917C8F481813D91C82F3A
:100C0000D0E0C050DF4F38838F5F8183F2CFD901AE
:100C100018962D913C91199721153105C1F72AE3BA
:100C200031E019963C932E931897D5CF81E08093AD
:100C30004B018AE391E0DF91CF910895EF92FF920B
:100C40000F931F93CF93DF93F0905902E0905802D7
:100C500008E010E0C0E0D0E861E08F2D0E946F0254
:100C60008E2D0E944602019709F4CD2B60E08F2D56
:100C70000E946F02D6950150110971F78C2FDF91F8
:100C8000CF911F910F91FF90EF900895FF920F93D6
:100C90001F93CF93DF93809158020E9446020197E1
:100CA000D1F310E0F8940E941E06D82F0E941E0671
:100CB000F82E0E941E06082F80915A02803829F0D3
:100CC000803471F0C2E0803261F061E080915902BD
:100CD0000E946F0260E0809159020E946F020DC075
:100CE000C3E061E0809159020E946F0260E0809150
:100CF00059020E946F02C150A1F77894D7FD1FEFEF
:100D00002FB7F8948091720190917301A0917401B2
:100D1000B09175012FBF8093630290936402A093FA
:100D20006502B0936602602F7F2D8D2F912F0E9458
:100D30005312DF91CF911F910F91FF9008954F9221
:100D40005F926F927F928F929F92AF92BF92CF925B
:100D5000DF92EF92FF920F931F93CF93DF93CDB764
:100D6000DEB74DB65EB6809157022DB73EB7281B51
:100D700031090FB6F8943EBF0FBE2DBF8DB79EB799
:100D800001963C018090FA01912C8091F60190919E
:100D9000F701D301FC019F01281B390B28153905E8
:100DA0001CF421912D93F7CF8091FB01882359F1F9
:100DB0008091F2019091F30128E097FD09C068E667
:100DC00071E00E9470136DE270E00E947013262F94
:100DD0008091F4019091F50168E097FD08C068E604
:100DE00071E00E9470136DE270E00E947013F301D5
:100DF000E80DF91D90E1699FB0011124262B208395
:100E0000F40131964F015301A80CB91CC0900202A5
:100E1000D0900302E0900402F09005020091FE01E0
:100E20001091FF0120910002309101024091C60112
:100E30005091C7016091C8017091C9018091FC0176
:100E400081700E940001880E991E5301A80CB91CE4
:100E5000C0900A02D0900B02E0900C02F0900D02BC
:100E600000910602109107022091080230910902B8
:100E70004091CA015091CB016091CC017091CD019C
:100E80008091FC01869581700E940001880E991E58
:100E90005301A80CB91CC0901202D0901302E0902C
:100EA0001402F090150200910E0210910F02209191
:100EB0001002309111024091CE015091CF0160910A
:100EC000D0017091D1018091FC0182FB882780F9CB
:100ED0000E940001880E991E5301A80CB91CC090F5
:100EE0001A02D0901B02E0901C02F0901D020091AB
:100EF00016021091170220911802309119024091A8
:100F0000D2015091D3016091D4017091D5018091AB
:100F1000FC0183FB882780F90E940001880E991E3E
:100F20005301A80CB91CC0902202D0902302E0907B
:100F30002402F090250200911E0210911F022091C0
:100F40002002309121024091D6015091D701609149
:100F5000D8017091D9018091FC01829581700E9425
:100F60000001880E991E5301A80CB91CC0902A02DA
:100F7000D0902B02E0902C02F0902D0200912602DE
:100F80001091270220912802309129024091DA0124
:100F90005091DB016091DC017091DD018091FC01D9
:100FA00085FB882780F90E940001880E991E530155
:100FB000A80CB91CC0903202D0903302E0903402E9
:100FC000F090350200912E0210912F0220913002F4
:100FD000309131024091E2015091E3016091E401CE
:100FE0007091E5018091FD0181700E940001880EE1
:100FF000991E5301A80CB91CC0903A02D0903B0234
:10100000E0903C02F0903D020091360210913702D0
:1010100020913802309139024091DE015091DF0178
:101020006091E0017091E1018091FD0186958170F0
:101030000E940001880E991E5301A80CB91CC09093
:101040004202D0904302E0904402F09045020091A9
:101050003E0210913F0220914002309141024091A6
:10106000E6015091E7016091E8017091E9018091FA
:10107000FD0182FB882780F90E940001880E991EDD
:101080005301A80CB91CC0904A02D0904B02E090CA
:101090004C02F0904D0200914602109147022091BF
:1010A0004802309149024091EA015091EB01609170
:1010B000EC017091ED018091FD0183FB882780F99F
:1010C0000E940001880D991D5301A80EB91EC09001
:1010D0005202D0905302E0905402F09055020091D9
:1010E0004E0210914F0220915002309151024091D6
:1010F000EE015091EF016091F0017091F10180914A
:10110000FD01829581700E9400010E94AC054C0196
:10111000409157028091560250E05A01FFEFAF1AFA
:10112000BF0A2DB73EB72A193B090FB6F8943EBF48
:101130000FBE2DBF0DB71EB70F5F1F4FEDB7FEB728
:101140008183B301C80101960E94C314F401838115
:10115000A501B80180640E9465030FB6F8945EBED5
:101160000FBE4DBEDF91CF911F910F91FF90EF9079
:10117000DF90CF90BF90AF909F908F907F906F90B7
:101180005F904F9008951F920F920FB60F92112407
:101190002F933F938F939F93AF93BF93809172014F
:1011A00090917301A0917401B091750130916B0120
:1011B00023E0230F2D3758F50196A11DB11D209373
:1011C0006B018093720190937301A0937401B093AB
:1011D000750180916C0190916D01A0916E01B091AB
:1011E0006F010196A11DB11D80936C0190936D015B
:1011F000A0936E01B0936F01BF91AF919F918F91BA
:101200003F912F910F900FBE0F901F90189526E8D9
:10121000230F0296A11DB11DD2CF1F920F920FB6C0
:101220000F9211248F939F938091E1009091E100A0
:10123000937F9093E10083FF0FC01092E90091E04B
:101240009093EB001092EC0092E39093ED001092DB
:10125000710198E09093F00082FF22C093E0909398
:10126000E9009091F200992319F09AE39093E80035
:1012700090916401992341F0909164019150909371
:101280006401911101C05D9A90917001992341F020
:1012900090917001915090937001911101C0289A22
:1012A00084FF18C08091E2008E7E81608093E2000E
:1012B0008091E1008F7E8093E100809165018E7EB8
:1012C0008061809365019F918F910F900FBE0F9069
:1012D0001F90189580FFF7CF8091E2008E7E80618D
:1012E0008093E2008091E1008E7E8093E100809106
:1012F00065018E7E8160E5CF1F920F920FB60F922F
:101300001124CF92DF92EF92FF920F931F932F93AE
:101310003F934F935F936F937F938F939F93AF937D
:10132000BF93EF93FF93CF93DF93CDB7DEB76C9767
:10133000DEBFCDBF1092E9008091E80083FF25C099
:1013400068E0CE0145960E94FB0382EF8093E8009F
:101350008D8987FF39C09091E80090FFFCCF982FCE
:10136000907609F034C19E894F89588D2F89F88C69
:10137000911131C0803861F5809166018093F10050
:101380001092F1008EEF8093E8006C960FB6F894FF
:10139000DEBF0FBECDBFDF91CF91FF91EF91BF9127
:1013A000AF919F918F917F916F915F914F913F91FD
:1013B0002F911F910F91FF90EF90DF90CF900F90A2
:1013C0000FBE0F901F9018959EEF9093E800C7CF27
:1013D0001092F100D5CF913059F48111D3CF413023
:1013E000510581F6809166018D7F80936601CACF99
:1013F000933049F48111C6CF4130510519F68091DF
:1014000066018260F2CF953041F48091E80080FF60
:10141000FCCF20682093E300B5CF963009F0A9C037
:101420000B8D1C8D22E01092E90010926201109247
:101430006101F2122EC01092600110925F010E94B1
:101440001C041F8299E09983FA8291E09E8390EABE
:1014500098879AEF99872091610130916201275F07
:101460003F4F3C832B838D831092E90010926201E1
:10147000109261011093600100935F0149E050E018
:10148000BE016F5F7F4F80E00E942E030E941C040C
:1014900079CF1093600100935F010E940804DC0182
:1014A00012960D911C910115110509F451C1D80135
:1014B000ED91FC910480F581E02DBE016B5E7F4FC4
:1014C000C8010995009709F03EC1F8010085118512
:1014D000EACFF3E0FF120EC08F89882309F440C0E1
:1014E000823061F440E862E180E191E00E94AE0B5D
:1014F000811148CF81E28093EB0047CF813029F4FE
:1015000040E86BE084E091E0F1CF833099F70E94EE
:101510000804DC011296ED90FC908E010F5F1F4FC6
:101520006801E114F10479F0D701ED91FC91068096
:10153000F781E02DB801C7010995080F111DF701CA
:10154000E084F184EECFD8011C92F60101900020D6
:10155000E9F73197BF016C197D0940E0C601C6CF9C
:101560006EEE70E0FB01449150E080E80E942E0393
:1015700009CF973009F4BECF983021F481E08093F1
:10158000F10000CF993009F0FDCE837009F0B2CFA1
:10159000E1E0F1E081E031E096E32191222371F076
:1015A0008093E9003093EB00DF0111972C91209399
:1015B000EC009093ED008F5F873079F78EE7809392
:1015C000EA001092EA008F8980937101DBCE8B8D47
:1015D0009C8D1092E900109262011092610190932B
:1015E000600180935F01898D811192C08E899D89F0
:1015F000913A49F4813209F07DCF47E050E06BE049
:1016000071E080E0B3CF913209F074CF833269F496
:101610008F89988DB0E0A0E0809307019093080136
:10162000A0930901B0930A01ADCE803269F4809194
:10163000E80082FFFCCF67E08BE091E00E94FB03B3
:101640008BEF8093E8009ECE823209F09BCE8F898B
:1016500080931201EEEFFFE7859194918B3F9C4DB3
:1016600051F1E0E0F8E080910B0190910C01A09124
:101670000D01B0910E01803B9440A105B105F1F43C
:101680008091120180FD1AC0EE3F8AE0F80789F5CB
:1016900087E797E79183808380916000809363015F
:1016A00088E19BE00FB6F894A895809360000FBE88
:1016B0009093600067CEEEEFFAE0D5CF8081918104
:1016C0008737974709F05ECEA895809160008861C2
:1016D000809360008091630180936000EE3F2AE078
:1016E000F20789F08091FE0A9091FF0A918380832E
:1016F00049CE808191818737980751F29093FF0AF4
:101700008093FE0AC5CF1092FF0A1092FE0A3ACECD
:101710000E940804DC0112960D911C91011511051F
:1017200009F4E8CED801ED91FC910190F081E02D13
:10173000BE016B5E7F4FC8010995811123CEF80170
:1017400000851185EBCF181619060CF41BCED2CEEE
:10175000F1E0FF12BECE62EF70E004CFEF92FF9295
:101760000F931F93CF93DF93F82E192FE62E042F9C
:1017700081E0860F880F0E94000383E00E9400032F
:10178000CF2DD12FEC0EFD2EF11CCE15DF05B9F0BB
:1017900007FF13C0FE0184910E940003182F80E010
:1017A0000E940003812321968111EFCFDF91CF9119
:1017B0001F910F91FF90EF9008958881EDCF81E008
:1017C000F5CFCF92DF92EF92FF920F931F93CF93BB
:1017D000DF93CDB7DEB7C659D1090FB6F894DEBF97
:1017E0000FBECDBF109279011092780188EE93E080
:1017F000A0E0B0E080937A0190937B01A0937C01FC
:10180000B0937D0189E291E0909377018093760116
:101810008FEF9FEF909383018093820180E8809304
:101820005A0210925B0210925C0210925D021092BA
:101830005E0280E090E0A0E8BFE380935F029093B7
:101840006002A0936102B093620210926302109250
:101850006402109265021092660210926702109262
:1018600068021092690210926A0210926B020E9442
:101870009D021092F7011092F6011092FA01109257
:10188000FE011092FF0110920002109201028FEFF0
:1018900093E0A0E0B0E08093020290930302A09353
:1018A0000402B093050210920602109207021092F1
:1018B00008021092090280930A0290930B02A093EF
:1018C0000C02B0930D0210920E0210920F021092B1
:1018D0001002109211028093120290931302A093AF
:1018E0001402B09315021092160210921702109271
:1018F00018021092190280931A0290931B02A0936F
:101900001C02B0931D0210921E0210921F02109230
:101910002002109221028093220290932302A0932E
:101920002402B093250210922602109227021092F0
:1019300028021092290280932A0290932B02A093EE
:101940002C02B0932D0210922E0210922F021092B0
:101950003002109231028093320290933302A093AE
:101960003402B09335021092360210923702109270
:1019700038021092390280933A0290933B02A0936E
:101980003C02B0933D0210923E0210923F02109230
:101990004002109241028093420290934302A0932E
:1019A0004402B093450210924602109247021092F0
:1019B00048021092490280934A0290934B02A093EE
:1019C0004C02B0934D0210924E0210924F021092B0
:1019D0005002109251028093520290935302A093AE
:1019E0005402B0935502F3E0F093560234E0309382
:1019F000F901F093FB011092FC018CE08093FD0152
:101A0000E5E0E98381E08A8329E02B8398E09C83E9
:101A100011EA1D838E8395E89F83F887E9872A87DB
:101A200099E19B878C8799E29D873E8775E17F8747
:101A3000188AB5E2B98B8A8B65E76B8B8C8B55E97D
:101A40005D8B3E8B95E59F8B188EA5E6A98F1A8E30
:101A500041E84B8F92E09C8F6D8F8E8F5F8F38A304
:101A600049A3FAA3EBA38CA32DA3F9E3CF2ECEA217
:101A70007FA318A6B9A707E0D02EDAA6F5E3EF2ECC
:101A8000EBA61CA606E4F02EFDA60BE30EA78FA77F
:101A9000A8ABF4E1F9AB6AAB3BAB5CAB8DAB4EAB47
:101AA0009FAB28AFC9AE7AAF1BAEBCAFDDAEEEAE1A
:101AB0001FAE2196FFAE219722960FAF2297239655
:101AC0008FAF23972496AFAF24972596FFAF259726
:101AD00026966FAF269727963FAF279728965FAF3A
:101AE000289729968FAF29972A964FAF2A972B963A
:101AF0009FAF2B972C96EFAF2C972D969FAF2D97DE
:101B00002E967FAF2E972F961FAE2F9787E2609667
:101B10008FAF60978FEF61968FAF619762968FAFAF
:101B2000629763961FAE639764961FAE649765963F
:101B30006FAF659780E166968FAF669767965FAFE8
:101B4000679768969FAF689769961FAF69976A967F
:101B50001FAE6A976B962FAF6B9784EC6C968FAF26
:101B60006C976D962FAF6D9785EC6E968FAF6E97D5
:101B70006F964FAF6F97A0969FAFA09780ECA196FE
:101B80008FAFA197A2968FAFA29781E690E00E94B7
:101B90009E137C0181E6FE013196D70101900D92E2
:101BA0008A95E1F787E090E00E949E138C01DC01AA
:101BB00011961C921E921396FC92EE92129781E659
:101BC00090E015969C938E93149716961C920E9403
:101BD000AC05FC01A385B485109709F0A3C0148758
:101BE000038785859685D80114962D913C91820FA7
:101BF000931F968785879091F901892F8695869501
:101C00008695977009F096C08093FA011091FA01B9
:101C1000812F90E0009711F481E090E00E949E13E4
:101C20009093F7018093F60181E09091FB0191116F
:101C300001C080E01C5F810F809357021092C601A3
:101C40001092C7011092C8011092C9011092CA01E6
:101C50001092CB011092CC011092CD011092CE01C6
:101C60001092CF011092D0011092D1011092D201A6
:101C70001092D3011092D4011092D5011092D60186
:101C80001092D7011092D8011092D9011092DA0166
:101C90001092DB011092DC011092DD011092DE0146
:101CA0001092DF011092E0011092E1011092E20126
:101CB0001092E3011092E4011092E5011092E60106
:101CC0001092E7011092E8011092E9011092EA01E6
:101CD0001092EB011092EC011092ED011092EE01C6
:101CE0001092EF011092F0011092F1018FEF9FEF2F
:101CF0009093F3018093F2019093F5018093F401A6
:101D000090E080E02091FA0128171906A9F0A4F0CC
:101D1000E091F601F091F701E80FF91F10820196AA
:101D2000F1CFDC018D919C9111970097D1F70D9324
:101D30001C9357CF8F5F68CFCA56DF4F0FB6F8940A
:101D4000DEBF0FBECDBFDF91CF911F910F91FF90EE
:101D5000EF90DF90CF900895CF93DF93CDB7DEB7AC
:101D6000EC970FB6F894DEBF0FBECDBF789484B564
:101D7000826084BD84B5816084BD85B5826085BD87
:101D800085B5816085BD80916E00816080936E0015
:101D90001092810080918100826080938100809107
:101DA00081008160809381008091800081608093B8
:101DB00080008091910082608093910080919100D9
:101DC0008160809391008091900081608093900069
:101DD0008091C10084608093C1008091C1008260C5
:101DE0008093C1008091C10081608093C100809187
:101DF000C30081608093C3008091C00082608093A3
:101E0000C0008091C20081608093C20080917A00FE
:101E1000846080937A0080917A00826080937A0057
:101E200080917A00816080937A0080917A00806846
:101E300080937A00109271011092660110926501F0
:101E40008091D70081608093D70080EA8093D8008A
:101E500089B5806189BD89B5826089BD09B400FEFC
:101E6000FDCF0E94E8028091D8008F7C8061809332
:101E7000D8008091E000807F8093E0008091E100B5
:101E80008E7E8093E1008DE08093E200559A209A47
:101E90001092460210924702109248021092490294
:101EA0008FEF93E0A0E0B0E080934A0290934B0262
:101EB000A0934C02B0934D0281E08093F8010E9400
:101EC0009F068FEF9FEF909383018093820182E1C1
:101ED0008093580283E180935902EEE7F1E0249168
:101EE000EFE5F1E084918823C9F090E0880F991F15
:101EF000FC01ED5DFE4F45915491FC01EF5CFE4FFE
:101F0000A591B4919FB7F894FA018081209582231E
:101F100080838C91E22FE823EC939FBF809159023C
:101F200090E0FC01E459FE4F2491835B9E4FFC013D
:101F30008491882399F090E0880F991FFC01ED5D52
:101F4000FE4FA591B491FC01EF5CFE4F85919491F9
:101F50008FB7F894EC91E22BEC938FBF60E0809107
:101F600059020E946F020E949D0287E197EBA1ED4A
:101F7000B8E380935F0290936002A0936102B093F4
:101F800062021AE0C12CD12C76010E9446069B0108
:101F9000AC01C701B6010E9438116B017C011150E0
:101FA000A1F720E030E040E251E40E94A9110E9434
:101FB0001B1260935B0270935C0280935D029093AE
:101FC0005E028AE0482E512C612C712C8E01035F39
:101FD0001F4F90E0A92E90E0B92EC0906901D090DB
:101FE0006A010D2C000CEE08FF08F7FE44C06DE2FC
:101FF00086E791E00E94630422273327A9012C1968
:102000003D094E095F0919A2CE0181967C01CA01E2
:10201000B901A30192010E940611605DF70162936C
:102020007F01211531054105510589F7E114F104BE
:1020300061F001900020E9F73197AF014E195F0977
:10204000B70186E791E00E944D0442E050E067E36B
:1020500071E086E791E00E944D0480916B0282302E
:1020600039F1F8F4813009F440C00E94460620E0BE
:1020700030E0A90137C0A701960119A2CE018196CF
:102080007C01CA01B901A30192010E940611605DA1
:10209000F70162937F01211531054105510589F74B
:1020A000C5CF853010F70E9446066B017C0134C015
:1020B000CE0101967C016C010E944606F7016193F6
:1020C0007193819391937F010E171F07A9F763E026
:1020D000C6010E94700120E030E0A9016D817E817F
:1020E0008F8198850E943811E0CFCE0101967C0146
:1020F0006C010E944606F70161937193819391935D
:102100007F010E171F07A9F763E0C6010E94700147
:10211000CD80DE80EF80F88460915B0270915C027C
:1021200080915D0290915E020E9453129B01AC016E
:10213000C701B6010E94371120915F023091600201
:1021400040916102509162020E9403130E941B128F
:102150001616170664F570936A0160936901E090A2
:102160006901F0906A0180916701909168018E1574
:102170009F05B1F0C7010F2C000CAA0BBB0B80937D
:10218000EA019093EB01A093EC01B093ED018091F3
:10219000F80181110E949F06F0926801E0926701A8
:1021A000A114B10409F419CF0E94000016CF1092B7
:1021B0006A0110926901D3CF052E97FB1EF400949B
:1021C0000E94F31057FD07D00E94061107FC03D0B0
:1021D0004EF40C94F31050954095309521953F4F57
:1021E0004F4F5F4F089590958095709561957F4F03
:1021F0008F4F9F4F08950E942811A59F900DB49F67
:10220000900DA49F800D911D11240895A1E21A2E16
:10221000AA1BBB1BFD010DC0AA1FBB1FEE1FFF1F8A
:10222000A217B307E407F50720F0A21BB30BE40BDA
:10223000F50B661F771F881F991F1A9469F7609521
:102240007095809590959B01AC01BD01CF010895DB
:10225000A29FB001B39FC001A39F700D811D1124E7
:10226000911DB29F700D811D1124911D089550582C
:10227000BB27AA270E944F110C94C9120E94BB12BF
:1022800038F00E94C21220F039F49F3F19F426F46E
:102290000C94B8120EF4E095E7FB0C94B212E92FFF
:1022A0000E94DA1258F3BA1762077307840795077A
:1022B00020F079F4A6F50C94FC120EF4E0950B2EA8
:1022C000BA2FA02D0B01B90190010C01CA01A00188
:1022D0001124FF27591B99F0593F50F4503E68F1E3
:1022E0001A16F040A22F232F342F4427585FF3CF24
:1022F000469537952795A795F0405395C9F77EF4F5
:102300001F16BA0B620B730B840BBAF09150A1F03D
:10231000FF0FBB1F661F771F881FC2F70EC0BA0FC3
:10232000621F731F841F48F4879577956795B7954B
:10233000F7959E3F08F0B0CF9395880F08F0992746
:10234000EE0F9795879508950E948E1208F481E00C
:1023500008950E94BD110C94C9120E94C21258F037
:102360000E94BB1240F029F45F3F29F00C94B21296
:1023700051110C94FD120C94B8120E94DA1268F3F9
:102380009923B1F3552391F3951B550BBB27AA272E
:1023900062177307840738F09F5F5F4F220F331F68
:1023A000441FAA1FA9F335D00E2E3AF0E0E832D030
:1023B00091505040E695001CCAF72BD0FE2F29D033
:1023C000660F771F881FBB1F261737074807AB0705
:1023D000B0E809F0BB0B802DBF01FF2793585F4F7A
:1023E0003AF09E3F510578F00C94B2120C94FD1215
:1023F0005F3FE4F3983ED4F3869577956795B7955C
:10240000F7959F5FC9F7880F911D9695879597F966
:102410000895E1E0660F771F881FBB1F62177307DF
:102420008407BA0720F0621B730B840BBA0BEE1FF4
:1024300088F7E09508950E9422126894B1110C94D7
:10244000FD1208950E94E21288F09F5798F0B92F6C
:102450009927B751B0F0E1F0660F771F881F991FD9
:102460001AF0BA95C9F714C0B13091F00E94FC126D
:10247000B1E008950C94FC12672F782F8827B85F7D
:1024800039F0B93FCCF3869577956795B395D9F731
:102490003EF490958095709561957F4F8F4F9F4F3B
:1024A0000895E89409C097FB3EF490958095709547
:1024B00061957F4F8F4F9F4F9923A9F0F92F96E990
:1024C000BB279395F695879577956795B795F11105
:1024D000F8CFFAF4BB0F11F460FF1BC06F5F7F4FA2
:1024E0008F4F9F4F16C0882311F096E911C07723B4
:1024F00021F09EE8872F762F05C0662371F096E8BD
:10250000862F70E060E02AF09A95660F771F881F8B
:10251000DAF7880F9695879597F90895990F00082F
:10252000550FAA0BE0E8FEEF16161706E807F907A5
:10253000C0F012161306E407F50798F0621B730B40
:10254000840B950B39F40A2661F0232B242B252BC1
:1025500021F408950A2609F4A140A6958FEF811D64
:10256000811D089597F99F6780E870E060E0089505
:102570009FEF80EC089500240A941616170618069B
:102580000906089500240A94121613061406050677
:102590000895092E0394000C11F4882352F0BB0F08
:1025A00040F4BF2B11F460FF04C06F5F7F4F8F4F6B
:1025B0009F4F089557FD9058440F551F59F05F3FA6
:1025C00071F04795880F97FB991F61F09F3F79F055
:1025D00087950895121613061406551FF2CF4695D7
:1025E000F1DF08C0161617061806991FF1CF869559
:1025F0007105610508940895E894BB27662777273D
:10260000CB0197F908950E9416130C94C9120E94E9
:10261000BB1238F00E94C21220F0952311F00C94E6
:10262000B2120C94B81211240C94FD120E94DA120A
:1026300070F3959FC1F3950F50E0551F629FF00115
:10264000729FBB27F00DB11D639FAA27F00DB11D2E
:10265000AA1F649F6627B00DA11D661F829F2227B7
:10266000B00DA11D621F739FB00DA11D621F839F3E
:10267000A00D611D221F749F3327A00D611D231F14
:10268000849F600D211D822F762F6A2F11249F5762
:1026900050409AF0F1F088234AF0EE0FFF1FBB1F65
:1026A000661F771F881F91505040A9F79E3F510524
:1026B00080F00C94B2120C94FD125F3FE4F3983E4C
:1026C000D4F3869577956795B795F795E7959F5FCE
:1026D000C1F7FE2B880F911D9695879597F9089560
:1026E00097FB072E16F4009407D077FD09D00E94BF
:1026F0008A1307FC05D03EF4909581959F4F08956D
:10270000709561957F4F0895EE0FFF1F0590F4912E
:10271000E02D0994AA1BBB1B51E107C0AA1FBB1FD8
:10272000A617B70710F0A61BB70B881F991F5A955D
:10273000A9F780959095BC01CD0108950F931F9343
:10274000CF93DF938230910510F482E090E0E09126
:102750006E02F0916F0230E020E0B0E0A0E0309730
:1027600099F42115310509F44AC0281B390B24308E
:102770003105D8F58A819B816115710589F1FB01CD
:1027800093838283FE0111C04081518102811381B4
:1027900048175907E0F04817590799F4109761F066
:1027A00012960C93129713961C933296CF01DF91D9
:1027B000CF911F910F91089500936E0210936F02B5
:1027C000F4CF2115310551F04217530738F0A90114
:1027D000DB019A01BD01DF01F801C1CFEF01F9CFA3
:1027E00090936F0280936E02CDCFFE01E20FF31F34
:1027F000819391932250310939832883D7CF209137
:102800006C0230916D02232B41F42091150130911F
:10281000160130936D0220936C02209113013091C8
:1028200014012115310541F42DB73EB74091170130
:1028300050911801241B350BE0916C02F0916D0250
:10284000E217F307A0F42E1B3F0B2817390778F087
:10285000AC014E5F5F4F2417350748F04E0F5F1FE6
:1028600050936D0240936C02819391939FCFF0E05F
:10287000E0E09CCFCF93DF930097E9F0FC01329723
:1028800013821282A0916E02B0916F02ED0130E0CE
:1028900020E01097A1F420813181820F931F2091B5
:1028A0006C0230916D022817390709F061C0F0936E
:1028B0006D02E0936C02DF91CF910895EA01CE178B
:1028C000DF07E8F54A815B819E0141155105B1F7AB
:1028D000E901FB83EA8349915991C40FD51FEC1795
:1028E000FD0761F4808191810296840F951FE901B3
:1028F00099838883828193819B838A83F0E0E0E0DF
:1029000012968D919C9113970097B9F52D913C915A
:102910001197CD010296820F931F20916C02309186
:102920006D022817390739F6309751F510926F026A
:1029300010926E02B0936D02A0936C02BCCFD38351
:10294000C28340815181840F951FC817D90761F454
:102950004E5F5F4F88819981480F591F5183408393
:102960008A819B81938382832115310509F0B0CF41
:10297000F0936F02E0936E029ECFFD01DC01C0CFA9
:1029800013821282D7CFFB01DC0102C001900D92AD
:0C29900041505040D8F70895F894FFCF54
:10299C0000C18081000000FFFFFFFF00E10000008C
:1029AC0000000000007002800000000000E50461DF
:1029BC0005230508050000000063044D0484047918
:0A29CC0004CB048904A7040D0A00DF
:00000001FF
